{
  "contractName": "ContratoClase",
  "abi": [
    {
      "inputs": [],
      "name": "returnTen",
      "outputs": [
        {
          "internalType": "uint256",
          "name": "",
          "type": "uint256"
        }
      ],
      "stateMutability": "pure",
      "type": "function",
      "constant": true
    }
  ],
  "bytecode": "0x608060405234801561001057600080fd5b5060b68061001f6000396000f3fe6080604052348015600f57600080fd5b506004361060285760003560e01c806303e995ce14602d575b600080fd5b60336047565b604051603e91906067565b60405180910390f35b6000600a905090565b6000819050919050565b6061816050565b82525050565b6000602082019050607a6000830184605a565b9291505056fea26469706673582212206205c0c14ebea8d2865c5aad8ed598a93a23821c17b54e61a19690cc96a5887164736f6c63430008110033",
  "immutableReferences": {},
  "source": "// SPDX-License-Identifier: MIT\npragma solidity 0.8.17;\n\ncontract ContratoClase {\n  function returnTen() public pure returns(uint) {\n    return 10;\n  }\n}\n",
  "sourcePath": "C:\\Users\\Intermedia\\Documents\\course_folder\\contracts\\ContratoClase.sol",
  "compiler": {
    "name": "solc",
    "version": "0.8.17+commit.8df45f5f.Emscripten.clang"
  },
  "schemaVersion": "3.4.10",
  "updatedAt": "2022-11-01T22:44:26.388Z",
  "networkType": "ethereum",
  "devdoc": {
    "kind": "dev",
    "methods": {},
    "version": 1
  },
  "userdoc": {
    "kind": "user",
    "methods": {},
    "version": 1
  }
}