{
  "contractName": "Player",
  "abi": [
    {
      "inputs": [
        {
          "internalType": "string",
          "name": "playerName",
          "type": "string"
        },
        {
          "internalType": "string",
          "name": "playerPos",
          "type": "string"
        },
        {
          "internalType": "uint256",
          "name": "marketPrice",
          "type": "uint256"
        }
      ],
      "stateMutability": "nonpayable",
      "type": "constructor"
    },
    {
      "anonymous": false,
      "inputs": [
        {
          "indexed": false,
          "internalType": "uint256",
          "name": "rate",
          "type": "uint256"
        }
      ],
      "name": "RateAdded",
      "type": "event"
    },
    {
      "inputs": [
        {
          "internalType": "uint256",
          "name": "newRate",
          "type": "uint256"
        }
      ],
      "name": "addNewRate",
      "outputs": [],
      "stateMutability": "nonpayable",
      "type": "function"
    },
    {
      "inputs": [],
      "name": "getAverageRating",
      "outputs": [
        {
          "internalType": "uint256",
          "name": "",
          "type": "uint256"
        }
      ],
      "stateMutability": "view",
      "type": "function"
    },
    {
      "inputs": [],
      "name": "getRatings",
      "outputs": [
        {
          "internalType": "uint256[]",
          "name": "",
          "type": "uint256[]"
        }
      ],
      "stateMutability": "view",
      "type": "function"
    },
    {
      "inputs": [],
      "name": "getMarketPrice",
      "outputs": [
        {
          "internalType": "uint256",
          "name": "",
          "type": "uint256"
        }
      ],
      "stateMutability": "view",
      "type": "function"
    }
  ],
  "bytecode": "0x60806040523480156200001157600080fd5b5060405162000af638038062000af6833981810160405281019062000037919062000239565b826000908162000048919062000514565b5081600190816200005a919062000514565b5080600481905550505050620005fb565b6000604051905090565b600080fd5b600080fd5b600080fd5b600080fd5b6000601f19601f8301169050919050565b7f4e487b7100000000000000000000000000000000000000000000000000000000600052604160045260246000fd5b620000d48262000089565b810181811067ffffffffffffffff82111715620000f657620000f56200009a565b5b80604052505050565b60006200010b6200006b565b9050620001198282620000c9565b919050565b600067ffffffffffffffff8211156200013c576200013b6200009a565b5b620001478262000089565b9050602081019050919050565b60005b838110156200017457808201518184015260208101905062000157565b60008484015250505050565b60006200019762000191846200011e565b620000ff565b905082815260208101848484011115620001b657620001b562000084565b5b620001c384828562000154565b509392505050565b600082601f830112620001e357620001e26200007f565b5b8151620001f584826020860162000180565b91505092915050565b6000819050919050565b6200021381620001fe565b81146200021f57600080fd5b50565b600081519050620002338162000208565b92915050565b60008060006060848603121562000255576200025462000075565b5b600084015167ffffffffffffffff8111156200027657620002756200007a565b5b6200028486828701620001cb565b935050602084015167ffffffffffffffff811115620002a857620002a76200007a565b5b620002b686828701620001cb565b9250506040620002c98682870162000222565b9150509250925092565b600081519050919050565b7f4e487b7100000000000000000000000000000000000000000000000000000000600052602260045260246000fd5b600060028204905060018216806200032657607f821691505b6020821081036200033c576200033b620002de565b5b50919050565b60008190508160005260206000209050919050565b60006020601f8301049050919050565b600082821b905092915050565b600060088302620003a67fffffffffffffffffffffffffffffffffffffffffffffffffffffffffffffffff8262000367565b620003b2868362000367565b95508019841693508086168417925050509392505050565b6000819050919050565b6000620003f5620003ef620003e984620001fe565b620003ca565b620001fe565b9050919050565b6000819050919050565b6200041183620003d4565b620004296200042082620003fc565b84845462000374565b825550505050565b600090565b6200044062000431565b6200044d81848462000406565b505050565b5b8181101562000475576200046960008262000436565b60018101905062000453565b5050565b601f821115620004c4576200048e8162000342565b620004998462000357565b81016020851015620004a9578190505b620004c1620004b88562000357565b83018262000452565b50505b505050565b600082821c905092915050565b6000620004e960001984600802620004c9565b1980831691505092915050565b6000620005048383620004d6565b9150826002028217905092915050565b6200051f82620002d3565b67ffffffffffffffff8111156200053b576200053a6200009a565b5b6200054782546200030d565b6200055482828562000479565b600060209050601f8311600181146200058c576000841562000577578287015190505b620005838582620004f6565b865550620005f3565b601f1984166200059c8662000342565b60005b82811015620005c6578489015182556001820191506020850194506020810190506200059f565b86831015620005e65784890151620005e2601f891682620004d6565b8355505b6001600288020188555050505b505050505050565b6104eb806200060b6000396000f3fe608060405234801561001057600080fd5b506004361061004c5760003560e01c8063660e16c3146100515780636ef1f2b51461006f57806370f6e4cf1461008b5780638cbdd6bd146100a9575b600080fd5b6100596100c7565b6040516100669190610222565b60405180910390f35b6100896004803603810190610084919061026e565b6100d1565b005b61009361013c565b6040516100a09190610222565b60405180910390f35b6100b1610146565b6040516100be9190610359565b60405180910390f35b6000600454905090565b600281908060018154018082558091505060019003906000526020600020016000909190919091505561010261019e565b7f0bd230340c351eece29a60e9c887f5d316a044b08a11e41b51b9d8d2252ceb62816040516101319190610222565b60405180910390a150565b6000600354905090565b6060600280548060200260200160405190810160405280929190818152602001828054801561019457602002820191906000526020600020905b815481526020019060010190808311610180575b5050505050905090565b6000805b6002805490508110156101ee57600281815481106101c3576101c261037b565b5b9060005260206000200154826101d991906103d9565b915080806101e69061040d565b9150506101a2565b50600280549050816102009190610484565b60038190555050565b6000819050919050565b61021c81610209565b82525050565b60006020820190506102376000830184610213565b92915050565b600080fd5b61024b81610209565b811461025657600080fd5b50565b60008135905061026881610242565b92915050565b6000602082840312156102845761028361023d565b5b600061029284828501610259565b91505092915050565b600081519050919050565b600082825260208201905092915050565b6000819050602082019050919050565b6102d081610209565b82525050565b60006102e283836102c7565b60208301905092915050565b6000602082019050919050565b60006103068261029b565b61031081856102a6565b935061031b836102b7565b8060005b8381101561034c57815161033388826102d6565b975061033e836102ee565b92505060018101905061031f565b5085935050505092915050565b6000602082019050818103600083015261037381846102fb565b905092915050565b7f4e487b7100000000000000000000000000000000000000000000000000000000600052603260045260246000fd5b7f4e487b7100000000000000000000000000000000000000000000000000000000600052601160045260246000fd5b60006103e482610209565b91506103ef83610209565b9250828201905080821115610407576104066103aa565b5b92915050565b600061041882610209565b91507fffffffffffffffffffffffffffffffffffffffffffffffffffffffffffffffff820361044a576104496103aa565b5b600182019050919050565b7f4e487b7100000000000000000000000000000000000000000000000000000000600052601260045260246000fd5b600061048f82610209565b915061049a83610209565b9250826104aa576104a9610455565b5b82820490509291505056fea2646970667358221220f622cd6834674531f2d67d87440f795c37201ce293c4ecd0d4325bb5541c4d7764736f6c63430008110033",
  "immutableReferences": {},
  "source": "// SPDX-License-Identifier: MIT\npragma solidity 0.8.17;\n\ncontract Player {\n    string private name;\n    string private position;\n    uint256[] private ratings;\n    uint256 private averageRating;\n    uint256 private price;\n\n    event RateAdded(uint256 rate);\n\n    constructor(\n        string memory playerName,\n        string memory playerPos,\n        uint256 marketPrice\n    ) {\n        name = playerName;\n        position = playerPos;\n        price = marketPrice;\n    }\n\n    function addNewRate(uint256 newRate) public {\n        ratings.push(newRate);\n        calculateAverageRate();\n        emit RateAdded(newRate);\n    }\n\n    function getAverageRating() public view returns (uint256) {\n        return averageRating;\n    }\n\n    function getRatings() public view returns (uint256[] memory) {\n        return ratings;\n    }\n\n    // Otra forma de hacer esto podria ser mediante una variable de estado que sea el contador o acumulador\n    function calculateAverageRate() private {\n        uint256 amount = 0;\n        for (uint256 i = 0; i < ratings.length; i++) {\n            amount += ratings[i];\n        }\n        averageRating = amount / ratings.length;\n    }\n\n    function getMarketPrice() public view returns(uint) {\n      return price;\n    }\n}\n",
  "sourcePath": "/Users/augustopinto/projects/incluit_blockchain_course/incluit_dapp_introduction/visualStudioCode/footballTeam/contracts/Player.sol",
  "compiler": {
    "name": "solc",
    "version": "0.8.17+commit.8df45f5f.Emscripten.clang"
  },
  "schemaVersion": "3.4.10",
  "updatedAt": "2022-11-08T22:03:06.002Z",
  "devdoc": {
    "kind": "dev",
    "methods": {},
    "version": 1
  },
  "userdoc": {
    "kind": "user",
    "methods": {},
    "version": 1
  }
}