{
  "contractName": "Squad",
  "abi": [
    {
      "inputs": [
        {
          "internalType": "string",
          "name": "squadName",
          "type": "string"
        }
      ],
      "stateMutability": "nonpayable",
      "type": "constructor"
    },
    {
      "anonymous": false,
      "inputs": [
        {
          "indexed": false,
          "internalType": "uint256",
          "name": "amount",
          "type": "uint256"
        }
      ],
      "name": "FundsReceived",
      "type": "event"
    },
    {
      "anonymous": false,
      "inputs": [
        {
          "indexed": true,
          "internalType": "address",
          "name": "previousOwner",
          "type": "address"
        },
        {
          "indexed": true,
          "internalType": "address",
          "name": "newOwner",
          "type": "address"
        }
      ],
      "name": "OwnershipTransferred",
      "type": "event"
    },
    {
      "anonymous": false,
      "inputs": [],
      "name": "PlayerAquired",
      "type": "event"
    },
    {
      "stateMutability": "payable",
      "type": "fallback",
      "payable": true
    },
    {
      "inputs": [],
      "name": "owner",
      "outputs": [
        {
          "internalType": "address",
          "name": "",
          "type": "address"
        }
      ],
      "stateMutability": "view",
      "type": "function",
      "constant": true
    },
    {
      "inputs": [],
      "name": "renounceOwnership",
      "outputs": [],
      "stateMutability": "nonpayable",
      "type": "function"
    },
    {
      "inputs": [
        {
          "internalType": "address",
          "name": "newOwner",
          "type": "address"
        }
      ],
      "name": "transferOwnership",
      "outputs": [],
      "stateMutability": "nonpayable",
      "type": "function"
    },
    {
      "stateMutability": "payable",
      "type": "receive",
      "payable": true
    },
    {
      "inputs": [
        {
          "internalType": "string",
          "name": "playerName",
          "type": "string"
        },
        {
          "internalType": "string",
          "name": "playerPos",
          "type": "string"
        },
        {
          "internalType": "uint256",
          "name": "marketPrice",
          "type": "uint256"
        }
      ],
      "name": "addNewPlayer",
      "outputs": [],
      "stateMutability": "nonpayable",
      "type": "function"
    },
    {
      "inputs": [
        {
          "internalType": "address",
          "name": "sellerAddress",
          "type": "address"
        },
        {
          "internalType": "contract Player",
          "name": "newPlayer",
          "type": "address"
        }
      ],
      "name": "buyPlayer",
      "outputs": [],
      "stateMutability": "nonpayable",
      "type": "function"
    },
    {
      "inputs": [],
      "name": "getPlayers",
      "outputs": [
        {
          "internalType": "contract Player[]",
          "name": "",
          "type": "address[]"
        }
      ],
      "stateMutability": "view",
      "type": "function",
      "constant": true
    },
    {
      "inputs": [],
      "name": "getSquadName",
      "outputs": [
        {
          "internalType": "string",
          "name": "",
          "type": "string"
        }
      ],
      "stateMutability": "view",
      "type": "function",
      "constant": true
    },
    {
      "inputs": [],
      "name": "getDreamTeam",
      "outputs": [],
      "stateMutability": "nonpayable",
      "type": "function"
    },
    {
      "inputs": [],
      "name": "sellPlayer",
      "outputs": [],
      "stateMutability": "nonpayable",
      "type": "function"
    }
  ],
  "bytecode": "0x60806040523480156200001157600080fd5b50604051620023a9380380620023a98339818101604052810190620000379190620002cf565b620000576200004b6200007060201b60201c565b6200007860201b60201c565b80600190816200006891906200056b565b505062000652565b600033905090565b60008060009054906101000a900473ffffffffffffffffffffffffffffffffffffffff169050816000806101000a81548173ffffffffffffffffffffffffffffffffffffffff021916908373ffffffffffffffffffffffffffffffffffffffff1602179055508173ffffffffffffffffffffffffffffffffffffffff168173ffffffffffffffffffffffffffffffffffffffff167f8be0079c531659141344cd1fd0a4f28419497f9722a3daafe3b4186f6b6457e060405160405180910390a35050565b6000604051905090565b600080fd5b600080fd5b600080fd5b600080fd5b6000601f19601f8301169050919050565b7f4e487b7100000000000000000000000000000000000000000000000000000000600052604160045260246000fd5b620001a5826200015a565b810181811067ffffffffffffffff82111715620001c757620001c66200016b565b5b80604052505050565b6000620001dc6200013c565b9050620001ea82826200019a565b919050565b600067ffffffffffffffff8211156200020d576200020c6200016b565b5b62000218826200015a565b9050602081019050919050565b60005b838110156200024557808201518184015260208101905062000228565b60008484015250505050565b6000620002686200026284620001ef565b620001d0565b90508281526020810184848401111562000287576200028662000155565b5b6200029484828562000225565b509392505050565b600082601f830112620002b457620002b362000150565b5b8151620002c684826020860162000251565b91505092915050565b600060208284031215620002e857620002e762000146565b5b600082015167ffffffffffffffff8111156200030957620003086200014b565b5b62000317848285016200029c565b91505092915050565b600081519050919050565b7f4e487b7100000000000000000000000000000000000000000000000000000000600052602260045260246000fd5b600060028204905060018216806200037357607f821691505b6020821081036200038957620003886200032b565b5b50919050565b60008190508160005260206000209050919050565b60006020601f8301049050919050565b600082821b905092915050565b600060088302620003f37fffffffffffffffffffffffffffffffffffffffffffffffffffffffffffffffff82620003b4565b620003ff8683620003b4565b95508019841693508086168417925050509392505050565b6000819050919050565b6000819050919050565b60006200044c62000446620004408462000417565b62000421565b62000417565b9050919050565b6000819050919050565b62000468836200042b565b62000480620004778262000453565b848454620003c1565b825550505050565b600090565b6200049762000488565b620004a48184846200045d565b505050565b5b81811015620004cc57620004c06000826200048d565b600181019050620004aa565b5050565b601f8211156200051b57620004e5816200038f565b620004f084620003a4565b8101602085101562000500578190505b620005186200050f85620003a4565b830182620004a9565b50505b505050565b600082821c905092915050565b6000620005406000198460080262000520565b1980831691505092915050565b60006200055b83836200052d565b9150826002028217905092915050565b620005768262000320565b67ffffffffffffffff8111156200059257620005916200016b565b5b6200059e82546200035a565b620005ab828285620004d0565b600060209050601f831160018114620005e35760008415620005ce578287015190505b620005da85826200054d565b8655506200064a565b601f198416620005f3866200038f565b60005b828110156200061d57848901518255600182019150602085019450602081019050620005f6565b868310156200063d578489015162000639601f8916826200052d565b8355505b6001600288020188555050505b505050505050565b611d4780620006626000396000f3fe608060405260043610620000975760003560e01c8063cc45ce3e1162000061578063cc45ce3e14620001bd578063d1a2e5d714620001eb578063e1f7de6e1462000205578063f2fde38b1462000233578063f9a8be5c146200026157620000d8565b806320a6bf841462000113578063715018a614620001435780638b5b9ccc146200015d5780638da5cb5b146200018d57620000d8565b36620000d8577fbcdc7071c1beb6dcf2744621e0b29a2f2432ee20812d9ca5e3d5e8f9308d93a334604051620000ce91906200091b565b60405180910390a1005b7fbcdc7071c1beb6dcf2744621e0b29a2f2432ee20812d9ca5e3d5e8f9308d93a3346040516200010991906200091b565b60405180910390a1005b3480156200012057600080fd5b506200012b6200027b565b6040516200013a9190620009d2565b60405180910390f35b3480156200015057600080fd5b506200015b62000315565b005b3480156200016a57600080fd5b50620001756200032d565b60405162000184919062000b3e565b60405180910390f35b3480156200019a57600080fd5b50620001a5620003bd565b604051620001b4919062000b87565b60405180910390f35b348015620001ca57600080fd5b50620001e96004803603810190620001e3919062000c2e565b620003e6565b005b348015620001f857600080fd5b50620002036200065f565b005b3480156200021257600080fd5b506200023160048036038101906200022b919062000df7565b62000661565b005b3480156200024057600080fd5b506200025f600480360381019062000259919062000e91565b62000715565b005b3480156200026e57600080fd5b50620002796200079f565b005b6060600180546200028c9062000ef2565b80601f0160208091040260200160405190810160405280929190818152602001828054620002ba9062000ef2565b80156200030b5780601f10620002df576101008083540402835291602001916200030b565b820191906000526020600020905b815481529060010190602001808311620002ed57829003601f168201915b5050505050905090565b6200031f620007a1565b6200032b600062000826565b565b60606002805480602002602001604051908101604052809291908181526020018280548015620003b357602002820191906000526020600020905b8160009054906101000a900473ffffffffffffffffffffffffffffffffffffffff1673ffffffffffffffffffffffffffffffffffffffff168152602001906001019080831162000368575b5050505050905090565b60008060009054906101000a900473ffffffffffffffffffffffffffffffffffffffff16905090565b620003f0620007a1565b8073ffffffffffffffffffffffffffffffffffffffff1663660e16c36040518163ffffffff1660e01b8152600401602060405180830381865afa1580156200043c573d6000803e3d6000fd5b505050506040513d601f19601f8201168201806040525081019062000462919062000f3e565b471015620004a7576040517f08c379a00000000000000000000000000000000000000000000000000000000081526004016200049e9062000fe6565b60405180910390fd5b60008273ffffffffffffffffffffffffffffffffffffffff168273ffffffffffffffffffffffffffffffffffffffff1663660e16c36040518163ffffffff1660e01b8152600401602060405180830381865afa1580156200050c573d6000803e3d6000fd5b505050506040513d601f19601f8201168201806040525081019062000532919062000f3e565b60405162000540906200103d565b60006040518083038185875af1925050503d80600081146200057f576040519150601f19603f3d011682016040523d82523d6000602084013e62000584565b606091505b5050905080620005cb576040517f08c379a0000000000000000000000000000000000000000000000000000000008152600401620005c290620010a4565b60405180910390fd5b6002829080600181540180825580915050600190039060005260206000200160009091909190916101000a81548173ffffffffffffffffffffffffffffffffffffffff021916908373ffffffffffffffffffffffffffffffffffffffff1602179055507f4845b443978c8f7a036791267b165c44378b3ebe9cfad28be20fd8b7239eb2be60405160405180910390a1505050565b565b6200066b620007a1565b60008383836040516200067e90620008f2565b6200068c93929190620010c6565b604051809103906000f080158015620006a9573d6000803e3d6000fd5b5090506002819080600181540180825580915050600190039060005260206000200160009091909190916101000a81548173ffffffffffffffffffffffffffffffffffffffff021916908373ffffffffffffffffffffffffffffffffffffffff16021790555050505050565b6200071f620007a1565b600073ffffffffffffffffffffffffffffffffffffffff168173ffffffffffffffffffffffffffffffffffffffff160362000791576040517f08c379a0000000000000000000000000000000000000000000000000000000008152600401620007889062001187565b60405180910390fd5b6200079c8162000826565b50565b565b620007ab620008ea565b73ffffffffffffffffffffffffffffffffffffffff16620007cb620003bd565b73ffffffffffffffffffffffffffffffffffffffff161462000824576040517f08c379a00000000000000000000000000000000000000000000000000000000081526004016200081b90620011f9565b60405180910390fd5b565b60008060009054906101000a900473ffffffffffffffffffffffffffffffffffffffff169050816000806101000a81548173ffffffffffffffffffffffffffffffffffffffff021916908373ffffffffffffffffffffffffffffffffffffffff1602179055508173ffffffffffffffffffffffffffffffffffffffff168173ffffffffffffffffffffffffffffffffffffffff167f8be0079c531659141344cd1fd0a4f28419497f9722a3daafe3b4186f6b6457e060405160405180910390a35050565b600033905090565b610af6806200121c83390190565b6000819050919050565b620009158162000900565b82525050565b60006020820190506200093260008301846200090a565b92915050565b600081519050919050565b600082825260208201905092915050565b60005b838110156200097457808201518184015260208101905062000957565b60008484015250505050565b6000601f19601f8301169050919050565b60006200099e8262000938565b620009aa818562000943565b9350620009bc81856020860162000954565b620009c78162000980565b840191505092915050565b60006020820190508181036000830152620009ee818462000991565b905092915050565b600081519050919050565b600082825260208201905092915050565b6000819050602082019050919050565b600073ffffffffffffffffffffffffffffffffffffffff82169050919050565b6000819050919050565b600062000a6d62000a6762000a618462000a22565b62000a42565b62000a22565b9050919050565b600062000a818262000a4c565b9050919050565b600062000a958262000a74565b9050919050565b62000aa78162000a88565b82525050565b600062000abb838362000a9c565b60208301905092915050565b6000602082019050919050565b600062000ae182620009f6565b62000aed818562000a01565b935062000afa8362000a12565b8060005b8381101562000b3157815162000b15888262000aad565b975062000b228362000ac7565b92505060018101905062000afe565b5085935050505092915050565b6000602082019050818103600083015262000b5a818462000ad4565b905092915050565b600062000b6f8262000a22565b9050919050565b62000b818162000b62565b82525050565b600060208201905062000b9e600083018462000b76565b92915050565b6000604051905090565b600080fd5b600080fd5b62000bc38162000b62565b811462000bcf57600080fd5b50565b60008135905062000be38162000bb8565b92915050565b600062000bf68262000b62565b9050919050565b62000c088162000be9565b811462000c1457600080fd5b50565b60008135905062000c288162000bfd565b92915050565b6000806040838503121562000c485762000c4762000bae565b5b600062000c588582860162000bd2565b925050602062000c6b8582860162000c17565b9150509250929050565b600080fd5b600080fd5b7f4e487b7100000000000000000000000000000000000000000000000000000000600052604160045260246000fd5b62000cb98262000980565b810181811067ffffffffffffffff8211171562000cdb5762000cda62000c7f565b5b80604052505050565b600062000cf062000ba4565b905062000cfe828262000cae565b919050565b600067ffffffffffffffff82111562000d215762000d2062000c7f565b5b62000d2c8262000980565b9050602081019050919050565b82818337600083830152505050565b600062000d5f62000d598462000d03565b62000ce4565b90508281526020810184848401111562000d7e5762000d7d62000c7a565b5b62000d8b84828562000d39565b509392505050565b600082601f83011262000dab5762000daa62000c75565b5b813562000dbd84826020860162000d48565b91505092915050565b62000dd18162000900565b811462000ddd57600080fd5b50565b60008135905062000df18162000dc6565b92915050565b60008060006060848603121562000e135762000e1262000bae565b5b600084013567ffffffffffffffff81111562000e345762000e3362000bb3565b5b62000e428682870162000d93565b935050602084013567ffffffffffffffff81111562000e665762000e6562000bb3565b5b62000e748682870162000d93565b925050604062000e878682870162000de0565b9150509250925092565b60006020828403121562000eaa5762000ea962000bae565b5b600062000eba8482850162000bd2565b91505092915050565b7f4e487b7100000000000000000000000000000000000000000000000000000000600052602260045260246000fd5b6000600282049050600182168062000f0b57607f821691505b60208210810362000f215762000f2062000ec3565b5b50919050565b60008151905062000f388162000dc6565b92915050565b60006020828403121562000f575762000f5662000bae565b5b600062000f678482850162000f27565b91505092915050565b7f456c2065717569706f206e6f207469656e6520666f6e646f732073756669636960008201527f656e746573000000000000000000000000000000000000000000000000000000602082015250565b600062000fce60258362000943565b915062000fdb8262000f70565b604082019050919050565b60006020820190508181036000830152620010018162000fbf565b9050919050565b600081905092915050565b50565b60006200102560008362001008565b9150620010328262001013565b600082019050919050565b60006200104a8262001016565b9150819050919050565b7f4572726f7220656e206c61207472616e73666572656e63696100000000000000600082015250565b60006200108c60198362000943565b9150620010998262001054565b602082019050919050565b60006020820190508181036000830152620010bf816200107d565b9050919050565b60006060820190508181036000830152620010e2818662000991565b90508181036020830152620010f8818562000991565b90506200110960408301846200090a565b949350505050565b7f4f776e61626c653a206e6577206f776e657220697320746865207a65726f206160008201527f6464726573730000000000000000000000000000000000000000000000000000602082015250565b60006200116f60268362000943565b91506200117c8262001111565b604082019050919050565b60006020820190508181036000830152620011a28162001160565b9050919050565b7f4f776e61626c653a2063616c6c6572206973206e6f7420746865206f776e6572600082015250565b6000620011e160208362000943565b9150620011ee82620011a9565b602082019050919050565b600060208201905081810360008301526200121481620011d2565b905091905056fe60806040523480156200001157600080fd5b5060405162000af638038062000af6833981810160405281019062000037919062000239565b826000908162000048919062000514565b5081600190816200005a919062000514565b5080600481905550505050620005fb565b6000604051905090565b600080fd5b600080fd5b600080fd5b600080fd5b6000601f19601f8301169050919050565b7f4e487b7100000000000000000000000000000000000000000000000000000000600052604160045260246000fd5b620000d48262000089565b810181811067ffffffffffffffff82111715620000f657620000f56200009a565b5b80604052505050565b60006200010b6200006b565b9050620001198282620000c9565b919050565b600067ffffffffffffffff8211156200013c576200013b6200009a565b5b620001478262000089565b9050602081019050919050565b60005b838110156200017457808201518184015260208101905062000157565b60008484015250505050565b60006200019762000191846200011e565b620000ff565b905082815260208101848484011115620001b657620001b562000084565b5b620001c384828562000154565b509392505050565b600082601f830112620001e357620001e26200007f565b5b8151620001f584826020860162000180565b91505092915050565b6000819050919050565b6200021381620001fe565b81146200021f57600080fd5b50565b600081519050620002338162000208565b92915050565b60008060006060848603121562000255576200025462000075565b5b600084015167ffffffffffffffff8111156200027657620002756200007a565b5b6200028486828701620001cb565b935050602084015167ffffffffffffffff811115620002a857620002a76200007a565b5b620002b686828701620001cb565b9250506040620002c98682870162000222565b9150509250925092565b600081519050919050565b7f4e487b7100000000000000000000000000000000000000000000000000000000600052602260045260246000fd5b600060028204905060018216806200032657607f821691505b6020821081036200033c576200033b620002de565b5b50919050565b60008190508160005260206000209050919050565b60006020601f8301049050919050565b600082821b905092915050565b600060088302620003a67fffffffffffffffffffffffffffffffffffffffffffffffffffffffffffffffff8262000367565b620003b2868362000367565b95508019841693508086168417925050509392505050565b6000819050919050565b6000620003f5620003ef620003e984620001fe565b620003ca565b620001fe565b9050919050565b6000819050919050565b6200041183620003d4565b620004296200042082620003fc565b84845462000374565b825550505050565b600090565b6200044062000431565b6200044d81848462000406565b505050565b5b8181101562000475576200046960008262000436565b60018101905062000453565b5050565b601f821115620004c4576200048e8162000342565b620004998462000357565b81016020851015620004a9578190505b620004c1620004b88562000357565b83018262000452565b50505b505050565b600082821c905092915050565b6000620004e960001984600802620004c9565b1980831691505092915050565b6000620005048383620004d6565b9150826002028217905092915050565b6200051f82620002d3565b67ffffffffffffffff8111156200053b576200053a6200009a565b5b6200054782546200030d565b6200055482828562000479565b600060209050601f8311600181146200058c576000841562000577578287015190505b620005838582620004f6565b865550620005f3565b601f1984166200059c8662000342565b60005b82811015620005c6578489015182556001820191506020850194506020810190506200059f565b86831015620005e65784890151620005e2601f891682620004d6565b8355505b6001600288020188555050505b505050505050565b6104eb806200060b6000396000f3fe608060405234801561001057600080fd5b506004361061004c5760003560e01c8063660e16c3146100515780636ef1f2b51461006f57806370f6e4cf1461008b5780638cbdd6bd146100a9575b600080fd5b6100596100c7565b6040516100669190610222565b60405180910390f35b6100896004803603810190610084919061026e565b6100d1565b005b61009361013c565b6040516100a09190610222565b60405180910390f35b6100b1610146565b6040516100be9190610359565b60405180910390f35b6000600454905090565b600281908060018154018082558091505060019003906000526020600020016000909190919091505561010261019e565b7f0bd230340c351eece29a60e9c887f5d316a044b08a11e41b51b9d8d2252ceb62816040516101319190610222565b60405180910390a150565b6000600354905090565b6060600280548060200260200160405190810160405280929190818152602001828054801561019457602002820191906000526020600020905b815481526020019060010190808311610180575b5050505050905090565b6000805b6002805490508110156101ee57600281815481106101c3576101c261037b565b5b9060005260206000200154826101d991906103d9565b915080806101e69061040d565b9150506101a2565b50600280549050816102009190610484565b60038190555050565b6000819050919050565b61021c81610209565b82525050565b60006020820190506102376000830184610213565b92915050565b600080fd5b61024b81610209565b811461025657600080fd5b50565b60008135905061026881610242565b92915050565b6000602082840312156102845761028361023d565b5b600061029284828501610259565b91505092915050565b600081519050919050565b600082825260208201905092915050565b6000819050602082019050919050565b6102d081610209565b82525050565b60006102e283836102c7565b60208301905092915050565b6000602082019050919050565b60006103068261029b565b61031081856102a6565b935061031b836102b7565b8060005b8381101561034c57815161033388826102d6565b975061033e836102ee565b92505060018101905061031f565b5085935050505092915050565b6000602082019050818103600083015261037381846102fb565b905092915050565b7f4e487b7100000000000000000000000000000000000000000000000000000000600052603260045260246000fd5b7f4e487b7100000000000000000000000000000000000000000000000000000000600052601160045260246000fd5b60006103e482610209565b91506103ef83610209565b9250828201905080821115610407576104066103aa565b5b92915050565b600061041882610209565b91507fffffffffffffffffffffffffffffffffffffffffffffffffffffffffffffffff820361044a576104496103aa565b5b600182019050919050565b7f4e487b7100000000000000000000000000000000000000000000000000000000600052601260045260246000fd5b600061048f82610209565b915061049a83610209565b9250826104aa576104a9610455565b5b82820490509291505056fea2646970667358221220f622cd6834674531f2d67d87440f795c37201ce293c4ecd0d4325bb5541c4d7764736f6c63430008110033a2646970667358221220ca04d0e4071e0358a3b34f62fd7bde60cc2845618bcc79484c12ae72db5dd5ce64736f6c63430008110033",
  "immutableReferences": {},
  "source": "// SPDX-License-Identifier: MIT\npragma solidity 0.8.17;\n\nimport \"@openzeppelin/contracts/access/Ownable.sol\";\nimport \"./Player.sol\";\n\ncontract Squad is Ownable {\n    string private name;\n    Player[] private players;\n\n    event FundsReceived(uint256 amount);\n    event PlayerAquired();\n\n    receive() external payable {\n        emit FundsReceived(msg.value);\n    }\n\n    fallback() external payable {\n        emit FundsReceived(msg.value);\n    }\n\n    constructor(string memory squadName) {\n        name = squadName;\n    }\n\n    function addNewPlayer(\n        string memory playerName,\n        string memory playerPos,\n        uint256 marketPrice\n    ) public onlyOwner {\n        Player player = new Player(playerName, playerPos, marketPrice);\n        players.push(player);\n    }\n\n    function buyPlayer(address sellerAddress, Player newPlayer)\n        public\n        onlyOwner\n    {\n        require(\n            address(this).balance >= newPlayer.getMarketPrice(),\n            \"El equipo no tiene fondos suficientes\"\n        );\n        (bool sent, ) = sellerAddress.call{value: newPlayer.getMarketPrice()}(\n            \"\"\n        );\n        require(sent, \"Error en la transferencia\");\n        players.push(newPlayer);\n        emit PlayerAquired();\n    }\n\n    function getPlayers() public view returns (Player[] memory) {\n        return players;\n    }\n\n    function getSquadName() public view returns (string memory) {\n        return name;\n    }\n\n    function getDreamTeam() public {}\n\n    function sellPlayer() public {}\n}\n",
  "sourcePath": "/Users/augustopinto/projects/incluit_blockchain_course/incluit_dapp_introduction/visualStudioCode/footballTeam/contracts/Squad.sol",
  "compiler": {
    "name": "solc",
    "version": "0.8.17+commit.8df45f5f.Emscripten.clang"
  },
  "schemaVersion": "3.4.10",
  "updatedAt": "2022-11-08T22:17:30.584Z",
  "networkType": "ethereum",
  "devdoc": {
    "kind": "dev",
    "methods": {
      "owner()": {
        "details": "Returns the address of the current owner."
      },
      "renounceOwnership()": {
        "details": "Leaves the contract without owner. It will not be possible to call `onlyOwner` functions anymore. Can only be called by the current owner. NOTE: Renouncing ownership will leave the contract without an owner, thereby removing any functionality that is only available to the owner."
      },
      "transferOwnership(address)": {
        "details": "Transfers ownership of the contract to a new account (`newOwner`). Can only be called by the current owner."
      }
    },
    "version": 1
  },
  "userdoc": {
    "kind": "user",
    "methods": {},
    "version": 1
  }
}